{
  "contractName": "Voting",
  "abi": [
    {
      "inputs": [],
      "stateMutability": "nonpayable",
      "type": "constructor"
    },
    {
      "anonymous": false,
      "inputs": [
        {
          "indexed": true,
          "internalType": "address",
          "name": "previousOwner",
          "type": "address"
        },
        {
          "indexed": true,
          "internalType": "address",
          "name": "newOwner",
          "type": "address"
        }
      ],
      "name": "OwnershipTransferred",
      "type": "event"
    },
    {
      "anonymous": false,
      "inputs": [
        {
          "indexed": false,
          "internalType": "uint256",
          "name": "proposalId",
          "type": "uint256"
        }
      ],
      "name": "ProposalRegistered",
      "type": "event"
    },
    {
      "anonymous": false,
      "inputs": [],
      "name": "ProposalsRegistrationEnded",
      "type": "event"
    },
    {
      "anonymous": false,
      "inputs": [],
      "name": "ProposalsRegistrationStarted",
      "type": "event"
    },
    {
      "anonymous": false,
      "inputs": [
        {
          "indexed": false,
          "internalType": "address",
          "name": "voter",
          "type": "address"
        },
        {
          "indexed": false,
          "internalType": "uint256",
          "name": "proposalId",
          "type": "uint256"
        }
      ],
      "name": "Voted",
      "type": "event"
    },
    {
      "anonymous": false,
      "inputs": [
        {
          "indexed": false,
          "internalType": "address",
          "name": "voterAddress",
          "type": "address"
        }
      ],
      "name": "VoterRegistered",
      "type": "event"
    },
    {
      "anonymous": false,
      "inputs": [],
      "name": "VotesTallied",
      "type": "event"
    },
    {
      "anonymous": false,
      "inputs": [],
      "name": "VotingSessionEnded",
      "type": "event"
    },
    {
      "anonymous": false,
      "inputs": [],
      "name": "VotingSessionStarted",
      "type": "event"
    },
    {
      "anonymous": false,
      "inputs": [
        {
          "indexed": false,
          "internalType": "enum Voting.WorkflowStatus",
          "name": "previousStatus",
          "type": "uint8"
        },
        {
          "indexed": false,
          "internalType": "enum Voting.WorkflowStatus",
          "name": "newStatus",
          "type": "uint8"
        }
      ],
      "name": "WorkflowStatusChange",
      "type": "event"
    },
    {
      "inputs": [],
      "name": "owner",
      "outputs": [
        {
          "internalType": "address",
          "name": "",
          "type": "address"
        }
      ],
      "stateMutability": "view",
      "type": "function",
      "constant": true
    },
    {
      "inputs": [],
      "name": "renounceOwnership",
      "outputs": [],
      "stateMutability": "nonpayable",
      "type": "function"
    },
    {
      "inputs": [
        {
          "internalType": "address",
          "name": "newOwner",
          "type": "address"
        }
      ],
      "name": "transferOwnership",
      "outputs": [],
      "stateMutability": "nonpayable",
      "type": "function"
    },
    {
      "inputs": [],
      "name": "startProposalsRegistration",
      "outputs": [],
      "stateMutability": "nonpayable",
      "type": "function"
    },
    {
      "inputs": [],
      "name": "stopProposalsRegistration",
      "outputs": [],
      "stateMutability": "nonpayable",
      "type": "function"
    },
    {
      "inputs": [],
      "name": "startVotingSession",
      "outputs": [],
      "stateMutability": "nonpayable",
      "type": "function"
    },
    {
      "inputs": [],
      "name": "stopVotingSession",
      "outputs": [],
      "stateMutability": "nonpayable",
      "type": "function"
    },
    {
      "inputs": [
        {
          "internalType": "address",
          "name": "_address",
          "type": "address"
        }
      ],
      "name": "voterRegistration",
      "outputs": [],
      "stateMutability": "nonpayable",
      "type": "function"
    },
    {
      "inputs": [
        {
          "internalType": "string",
          "name": "description",
          "type": "string"
        }
      ],
      "name": "proposalRegistration",
      "outputs": [],
      "stateMutability": "nonpayable",
      "type": "function"
    },
    {
      "inputs": [
        {
          "internalType": "uint256",
          "name": "proposalId",
          "type": "uint256"
        }
      ],
      "name": "voting",
      "outputs": [],
      "stateMutability": "nonpayable",
      "type": "function"
    },
    {
      "inputs": [],
      "name": "getWinningProposal",
      "outputs": [
        {
          "internalType": "string",
          "name": "",
          "type": "string"
        }
      ],
      "stateMutability": "view",
      "type": "function",
      "constant": true
    },
    {
      "inputs": [],
      "name": "getWinningVotes",
      "outputs": [
        {
          "internalType": "uint256",
          "name": "",
          "type": "uint256"
        }
      ],
      "stateMutability": "view",
      "type": "function",
      "constant": true
    },
    {
      "inputs": [],
      "name": "getVotingStatus",
      "outputs": [
        {
          "internalType": "enum Voting.WorkflowStatus",
          "name": "",
          "type": "uint8"
        }
      ],
      "stateMutability": "view",
      "type": "function",
      "constant": true
    },
    {
      "inputs": [],
      "name": "getNbProposals",
      "outputs": [
        {
          "internalType": "uint256",
          "name": "",
          "type": "uint256"
        }
      ],
      "stateMutability": "view",
      "type": "function",
      "constant": true
    },
    {
      "inputs": [
        {
          "internalType": "uint256",
          "name": "proposalId",
          "type": "uint256"
        }
      ],
      "name": "getProposal",
      "outputs": [
        {
          "internalType": "string",
          "name": "",
          "type": "string"
        }
      ],
      "stateMutability": "view",
      "type": "function",
      "constant": true
    },
    {
      "inputs": [],
      "name": "getNbVoters",
      "outputs": [
        {
          "internalType": "uint256",
          "name": "",
          "type": "uint256"
        }
      ],
      "stateMutability": "view",
      "type": "function",
      "constant": true
    }
  ],
  "bytecode": "0x608060405234801561001057600080fd5b5060006100216100ef60201b60201c565b9050806000806101000a81548173ffffffffffffffffffffffffffffffffffffffff021916908373ffffffffffffffffffffffffffffffffffffffff1602179055508073ffffffffffffffffffffffffffffffffffffffff16600073ffffffffffffffffffffffffffffffffffffffff167f8be0079c531659141344cd1fd0a4f28419497f9722a3daafe3b4186f6b6457e060405160405180910390a3506000600560006101000a81548160ff021916908360058111156100de57fe5b0217905550600180819055506100f7565b600033905090565b612011806101066000396000f3fe608060405234801561001057600080fd5b50600436106101005760003560e01c80638da5cb5b11610097578063e09b8c7911610066578063e09b8c79146103da578063ee74c678146103e4578063f2fde38b146103ee578063fd4a77f11461043257610100565b80638da5cb5b14610248578063a513462014610292578063a6d4287014610315578063c7f758a81461033357610100565b806353302887116100d357806353302887146101ea578063581c281c146101f45780636ea212ca14610220578063715018a61461023e57610100565b806317a0ad8e14610105578063209bf2b71461010f5780632c5aa818146101885780633b24fe96146101a6575b600080fd5b61010d610460565b005b6101866004803603602081101561012557600080fd5b810190808035906020019064010000000081111561014257600080fd5b82018360208201111561015457600080fd5b8035906020019184600183028401116401000000008311171561017657600080fd5b909192939192939050505061077d565b005b610190610872565b6040518082815260200191505060405180910390f35b6101e8600480360360208110156101bc57600080fd5b81019080803573ffffffffffffffffffffffffffffffffffffffff1690602001909291905050506109a4565b005b6101f2610cc2565b005b6101fc610f15565b6040518082600581111561020c57fe5b60ff16815260200191505060405180910390f35b610228610f2c565b6040518082815260200191505060405180910390f35b610246610f36565b005b6102506110a4565b604051808273ffffffffffffffffffffffffffffffffffffffff1673ffffffffffffffffffffffffffffffffffffffff16815260200191505060405180910390f35b61029a6110cd565b6040518080602001828103825283818151815260200191508051906020019080838360005b838110156102da5780820151818401526020810190506102bf565b50505050905090810190601f1680156103075780820380516001836020036101000a031916815260200191505b509250505060405180910390f35b61031d611297565b6040518082815260200191505060405180910390f35b61035f6004803603602081101561034957600080fd5b81019080803590602001909291905050506112a3565b6040518080602001828103825283818151815260200191508051906020019080838360005b8381101561039f578082015181840152602081019050610384565b50505050905090810190601f1680156103cc5780820380516001836020036101000a031916815260200191505b509250505060405180910390f35b6103e26113de565b005b6103ec611632565b005b6104306004803603602081101561040457600080fd5b81019080803573ffffffffffffffffffffffffffffffffffffffff16906020019092919050505061180e565b005b61045e6004803603602081101561044857600080fd5b8101908080359060200190929190505050611a01565b005b610468611e02565b73ffffffffffffffffffffffffffffffffffffffff166104866110a4565b73ffffffffffffffffffffffffffffffffffffffff161461050f576040517f08c379a00000000000000000000000000000000000000000000000000000000081526004018080602001828103825260208152602001807f4f776e61626c653a2063616c6c6572206973206e6f7420746865206f776e657281525060200191505060405180910390fd5b6003600581111561051c57fe5b600560009054906101000a900460ff16600581111561053757fe5b146105aa576040517f08c379a00000000000000000000000000000000000000000000000000000000081526004018080602001828103825260208152602001807f416c6c6f776564206f6e6c7920647572696e6720766f74696e6720706861736581525060200191505060405180910390fd5b600060035411610622576040517f08c379a00000000000000000000000000000000000000000000000000000000081526004018080602001828103825260158152602001807f4e6f20766f7465207375626d697474656420796574000000000000000000000081525060200191505060405180910390fd5b6004600560006101000a81548160ff0219169083600581111561064157fe5b02179055507f0a97a4ee45751e2abf3e4fc8946939630b11b371ea8ae39ccdc3056e98f5cc3f600360046040518083600581111561067b57fe5b60ff16815260200182600581111561068f57fe5b60ff1681526020019250505060405180910390a17fc379d349a6301baf50fb2f98d829f4ae10b1cdb7c66f4e4d8117302df7b8cd4c60405160405180910390a160058060006101000a81548160ff021916908360058111156106ed57fe5b02179055507f0a97a4ee45751e2abf3e4fc8946939630b11b371ea8ae39ccdc3056e98f5cc3f600460056040518083600581111561072757fe5b60ff16815260200182600581111561073b57fe5b60ff1681526020019250505060405180910390a17f0e5e95ff8725ab3e7a4b6b59998a4c344c2aa8d1485f5e60cb7f337768e6134760405160405180910390a1565b6001600581111561078a57fe5b600560009054906101000a900460ff1660058111156107a557fe5b146107fb576040517f08c379a0000000000000000000000000000000000000000000000000000000008152600401808060200182810382526035815260200180611fa76035913960400191505060405180910390fd5b81816006600060015481526020019081526020016000206000019190610822929190611e0a565b507f92e393e9b54e2f801d3ea4beb0c5e71a21cc34a5d34b77d0fb8a3aa1650dc18f6001546040518082815260200191505060405180910390a16001600081548092919060010191905055505050565b600060058081111561088057fe5b600560009054906101000a900460ff16600581111561089b57fe5b1461090e576040517f08c379a000000000000000000000000000000000000000000000000000000000815260040180806020018281038252601f8152602001807f566f74696e672073657373696f6e206e6f742066696e6973686564207965740081525060200191505060405180910390fd5b600060025411610986576040517f08c379a00000000000000000000000000000000000000000000000000000000081526004018080602001828103825260188152602001807f4e6f20766f746520646f6e65202d206e6f20726573756c74000000000000000081525060200191505060405180910390fd5b60066000600254815260200190815260200160002060010154905090565b6109ac611e02565b73ffffffffffffffffffffffffffffffffffffffff166109ca6110a4565b73ffffffffffffffffffffffffffffffffffffffff1614610a53576040517f08c379a00000000000000000000000000000000000000000000000000000000081526004018080602001828103825260208152602001807f4f776e61626c653a2063616c6c6572206973206e6f7420746865206f776e657281525060200191505060405180910390fd5b600760008273ffffffffffffffffffffffffffffffffffffffff1673ffffffffffffffffffffffffffffffffffffffff16815260200190815260200160002060000160009054906101000a900460ff1615610af9576040517f08c379a0000000000000000000000000000000000000000000000000000000008152600401808060200182810382526022815260200180611f856022913960400191505060405180910390fd5b60006005811115610b0657fe5b600560009054906101000a900460ff166005811115610b2157fe5b14610b94576040517f08c379a000000000000000000000000000000000000000000000000000000000815260040180806020018281038252601a8152602001807f5265676973746572696e672070686173652066696e697368656400000000000081525060200191505060405180910390fd5b6001600760008373ffffffffffffffffffffffffffffffffffffffff1673ffffffffffffffffffffffffffffffffffffffff16815260200190815260200160002060000160006101000a81548160ff0219169083151502179055506000600760008373ffffffffffffffffffffffffffffffffffffffff1673ffffffffffffffffffffffffffffffffffffffff16815260200190815260200160002060000160016101000a81548160ff0219169083151502179055506004600081548092919060010191905055507fb6be2187d059cc2a55fe29e0e503b566e1e0f8c8780096e185429350acffd3dd81604051808273ffffffffffffffffffffffffffffffffffffffff1673ffffffffffffffffffffffffffffffffffffffff16815260200191505060405180910390a150565b610cca611e02565b73ffffffffffffffffffffffffffffffffffffffff16610ce86110a4565b73ffffffffffffffffffffffffffffffffffffffff1614610d71576040517f08c379a00000000000000000000000000000000000000000000000000000000081526004018080602001828103825260208152602001807f4f776e61626c653a2063616c6c6572206973206e6f7420746865206f776e657281525060200191505060405180910390fd5b60016005811115610d7e57fe5b600560009054906101000a900460ff166005811115610d9957fe5b14610def576040517f08c379a000000000000000000000000000000000000000000000000000000000815260040180806020018281038252602f815260200180611efd602f913960400191505060405180910390fd5b6001805411610e66576040517f08c379a00000000000000000000000000000000000000000000000000000000081526004018080602001828103825260198152602001807f4e6f2070726f706f73616c207375626d6974746564207965740000000000000081525060200191505060405180910390fd5b6002600560006101000a81548160ff02191690836005811115610e8557fe5b02179055507f0a97a4ee45751e2abf3e4fc8946939630b11b371ea8ae39ccdc3056e98f5cc3f6001600260405180836005811115610ebf57fe5b60ff168152602001826005811115610ed357fe5b60ff1681526020019250505060405180910390a17f240cb87b2e4df4c318e72bd714d45a9cad60249e883ff56b1fffd83a4595a8fa60405160405180910390a1565b6000600560009054906101000a900460ff16905090565b6000600454905090565b610f3e611e02565b73ffffffffffffffffffffffffffffffffffffffff16610f5c6110a4565b73ffffffffffffffffffffffffffffffffffffffff1614610fe5576040517f08c379a00000000000000000000000000000000000000000000000000000000081526004018080602001828103825260208152602001807f4f776e61626c653a2063616c6c6572206973206e6f7420746865206f776e657281525060200191505060405180910390fd5b600073ffffffffffffffffffffffffffffffffffffffff166000809054906101000a900473ffffffffffffffffffffffffffffffffffffffff1673ffffffffffffffffffffffffffffffffffffffff167f8be0079c531659141344cd1fd0a4f28419497f9722a3daafe3b4186f6b6457e060405160405180910390a360008060006101000a81548173ffffffffffffffffffffffffffffffffffffffff021916908373ffffffffffffffffffffffffffffffffffffffff160217905550565b60008060009054906101000a900473ffffffffffffffffffffffffffffffffffffffff16905090565b60606005808111156110db57fe5b600560009054906101000a900460ff1660058111156110f657fe5b14611169576040517f08c379a000000000000000000000000000000000000000000000000000000000815260040180806020018281038252601f8152602001807f566f74696e672073657373696f6e206e6f742066696e6973686564207965740081525060200191505060405180910390fd5b6000600254116111e1576040517f08c379a00000000000000000000000000000000000000000000000000000000081526004018080602001828103825260188152602001807f4e6f20766f746520646f6e65202d206e6f20726573756c74000000000000000081525060200191505060405180910390fd5b6006600060025481526020019081526020016000206000018054600181600116156101000203166002900480601f01602080910402602001604051908101604052809291908181526020018280546001816001161561010002031660029004801561128d5780601f106112625761010080835404028352916020019161128d565b820191906000526020600020905b81548152906001019060200180831161127057829003601f168201915b5050505050905090565b60006001805403905090565b60606000821180156112b6575060015482105b611328576040517f08c379a00000000000000000000000000000000000000000000000000000000081526004018080602001828103825260158152602001807f496e636f72726563742070726f706f73616c206964000000000000000000000081525060200191505060405180910390fd5b600660008381526020019081526020016000206000018054600181600116156101000203166002900480601f0160208091040260200160405190810160405280929190818152602001828054600181600116156101000203166002900480156113d25780601f106113a7576101008083540402835291602001916113d2565b820191906000526020600020905b8154815290600101906020018083116113b557829003601f168201915b50505050509050919050565b6113e6611e02565b73ffffffffffffffffffffffffffffffffffffffff166114046110a4565b73ffffffffffffffffffffffffffffffffffffffff161461148d576040517f08c379a00000000000000000000000000000000000000000000000000000000081526004018080602001828103825260208152602001807f4f776e61626c653a2063616c6c6572206973206e6f7420746865206f776e657281525060200191505060405180910390fd5b6000600581111561149a57fe5b600560009054906101000a900460ff1660058111156114b557fe5b1461150b576040517f08c379a000000000000000000000000000000000000000000000000000000000815260040180806020018281038252602b815260200180611f2c602b913960400191505060405180910390fd5b600060045411611583576040517f08c379a00000000000000000000000000000000000000000000000000000000081526004018080602001828103825260148152602001807f4e6f20766f74657273207265676973746572656400000000000000000000000081525060200191505060405180910390fd5b6001600560006101000a81548160ff021916908360058111156115a257fe5b02179055507f0a97a4ee45751e2abf3e4fc8946939630b11b371ea8ae39ccdc3056e98f5cc3f60006001604051808360058111156115dc57fe5b60ff1681526020018260058111156115f057fe5b60ff1681526020019250505060405180910390a17f344c25562921d075a298d34b6dd1fd00d36ff293974539dfd4a8c625d9f0064c60405160405180910390a1565b61163a611e02565b73ffffffffffffffffffffffffffffffffffffffff166116586110a4565b73ffffffffffffffffffffffffffffffffffffffff16146116e1576040517f08c379a00000000000000000000000000000000000000000000000000000000081526004018080602001828103825260208152602001807f4f776e61626c653a2063616c6c6572206973206e6f7420746865206f776e657281525060200191505060405180910390fd5b600260058111156116ee57fe5b600560009054906101000a900460ff16600581111561170957fe5b1461175f576040517f08c379a000000000000000000000000000000000000000000000000000000000815260040180806020018281038252602e815260200180611f57602e913960400191505060405180910390fd5b6003600560006101000a81548160ff0219169083600581111561177e57fe5b02179055507f0a97a4ee45751e2abf3e4fc8946939630b11b371ea8ae39ccdc3056e98f5cc3f60026003604051808360058111156117b857fe5b60ff1681526020018260058111156117cc57fe5b60ff1681526020019250505060405180910390a17f1b8e19a458c1bcd88553332c518cc5c4e2d5793e712ee766d4f1c14f672ef1f560405160405180910390a1565b611816611e02565b73ffffffffffffffffffffffffffffffffffffffff166118346110a4565b73ffffffffffffffffffffffffffffffffffffffff16146118bd576040517f08c379a00000000000000000000000000000000000000000000000000000000081526004018080602001828103825260208152602001807f4f776e61626c653a2063616c6c6572206973206e6f7420746865206f776e657281525060200191505060405180910390fd5b600073ffffffffffffffffffffffffffffffffffffffff168173ffffffffffffffffffffffffffffffffffffffff161415611943576040517f08c379a0000000000000000000000000000000000000000000000000000000008152600401808060200182810382526026815260200180611eb06026913960400191505060405180910390fd5b8073ffffffffffffffffffffffffffffffffffffffff166000809054906101000a900473ffffffffffffffffffffffffffffffffffffffff1673ffffffffffffffffffffffffffffffffffffffff167f8be0079c531659141344cd1fd0a4f28419497f9722a3daafe3b4186f6b6457e060405160405180910390a3806000806101000a81548173ffffffffffffffffffffffffffffffffffffffff021916908373ffffffffffffffffffffffffffffffffffffffff16021790555050565b60036005811115611a0e57fe5b600560009054906101000a900460ff166005811115611a2957fe5b14611a7f576040517f08c379a0000000000000000000000000000000000000000000000000000000008152600401808060200182810382526027815260200180611ed66027913960400191505060405180910390fd5b600760003373ffffffffffffffffffffffffffffffffffffffff1673ffffffffffffffffffffffffffffffffffffffff16815260200190815260200160002060000160009054906101000a900460ff16611b41576040517f08c379a00000000000000000000000000000000000000000000000000000000081526004018080602001828103825260148152602001807f566f746572206e6f74207265676973746572656400000000000000000000000081525060200191505060405180910390fd5b600760003373ffffffffffffffffffffffffffffffffffffffff1673ffffffffffffffffffffffffffffffffffffffff16815260200190815260200160002060000160019054906101000a900460ff1615611c04576040517f08c379a00000000000000000000000000000000000000000000000000000000081526004018080602001828103825260138152602001807f566f74657220616c726561647920766f7465640000000000000000000000000081525060200191505060405180910390fd5b600081118015611c15575060015481105b611c87576040517f08c379a00000000000000000000000000000000000000000000000000000000081526004018080602001828103825260158152602001807f50726f706f736974696f6e206e6f7420666f756e64000000000000000000000081525060200191505060405180910390fd5b6001600760003373ffffffffffffffffffffffffffffffffffffffff1673ffffffffffffffffffffffffffffffffffffffff16815260200190815260200160002060000160016101000a81548160ff02191690831515021790555080600760003373ffffffffffffffffffffffffffffffffffffffff1673ffffffffffffffffffffffffffffffffffffffff16815260200190815260200160002060010181905550600660008281526020019081526020016000206001016000815480929190600101919050555060035460066000838152602001908152602001600020600101541115611d94576006600082815260200190815260200160002060010154600381905550806002819055505b7f4d99b957a2bc29a30ebd96a7be8e68fe50a3c701db28a91436490b7d53870ca43382604051808373ffffffffffffffffffffffffffffffffffffffff1673ffffffffffffffffffffffffffffffffffffffff1681526020018281526020019250505060405180910390a150565b600033905090565b828054600181600116156101000203166002900490600052602060002090601f016020900481019282601f10611e4b57803560ff1916838001178555611e79565b82800160010185558215611e79579182015b82811115611e78578235825591602001919060010190611e5d565b5b509050611e869190611e8a565b5090565b611eac91905b80821115611ea8576000816000905550600101611e90565b5090565b9056fe4f776e61626c653a206e6577206f776e657220697320746865207a65726f20616464726573734e6f7420616c6c6f776564206f757473696465206f662074686520766f74696e67207068617365416c6c6f776564206f6e6c7920647572696e672070726f706f73616c20726567697374726174696f6e207068617365416c6c6f776564206f6e6c7920616674657220766f74657220726567697374726174696f6e207068617365416c6c6f776564206f6e6c792061667465722070726f706f73616c20726567697374726174696f6e2070686173655468697320766f74657220697320616c7265616479207265676973746572656420214e6f7420616c6c6f776564206f757473696465206f66207468652070726f706f73616c207265676973746572696e67207068617365a264697066735822122065cfac96c1502079ed4fe65f273580b6f04825f7f188af1c651da0cb0c7cbc2c64736f6c634300060b0033",
  "immutableReferences": {},
  "source": "// voting.sol\r\n// SPDX-License-Identifier: MIT\r\npragma solidity 0.6.11;\r\nimport \"./Ownable.sol\";\r\n\r\n\r\ncontract Voting is Ownable{\r\n    struct Voter {\r\n        bool isRegistered;\r\n        bool hasVoted;\r\n        uint votedProposalId;\r\n    }\r\n\r\n    struct Proposal {\r\n        string description;\r\n        uint voteCount;\r\n    }\r\n\r\n    enum WorkflowStatus {\r\n        RegisteringVoters,\r\n        ProposalsRegistrationStarted,\r\n        ProposalsRegistrationEnded,\r\n        VotingSessionStarted,\r\n        VotingSessionEnded,\r\n        VotesTallied\r\n    }\r\n\r\n    uint private proposalIndex;\r\n    uint private winningProposalId;\r\n    uint private voteCountMax;\r\n    uint private nbVoters;\r\n\r\n    WorkflowStatus private votingStatus;\r\n    mapping(uint => Proposal) private proposals;\r\n    mapping(address => Voter) private voters;\r\n\r\n    event VoterRegistered(address voterAddress);\r\n    event ProposalsRegistrationStarted();\r\n    event ProposalsRegistrationEnded();\r\n    event ProposalRegistered(uint proposalId);\r\n    event VotingSessionStarted();\r\n    event VotingSessionEnded();\r\n    event Voted (address voter, uint proposalId);\r\n    event VotesTallied();\r\n    event WorkflowStatusChange(WorkflowStatus previousStatus, WorkflowStatus newStatus);    \r\n\r\n\r\n   constructor() public {\r\n        votingStatus = WorkflowStatus.RegisteringVoters;\r\n        proposalIndex = 1;\r\n   }\r\n\r\n    function startProposalsRegistration() public onlyOwner {\r\n        require(votingStatus == WorkflowStatus.RegisteringVoters, \"Allowed only after voter registration phase\");\r\n        require(nbVoters > 0, \"No voters registered\");\r\n\r\n        votingStatus = WorkflowStatus.ProposalsRegistrationStarted;\r\n        emit WorkflowStatusChange(WorkflowStatus.RegisteringVoters, WorkflowStatus.ProposalsRegistrationStarted);\r\n        emit ProposalsRegistrationStarted();\r\n    }\r\n\r\n    function stopProposalsRegistration() public onlyOwner {\r\n        require(votingStatus == WorkflowStatus.ProposalsRegistrationStarted, \"Allowed only during proposal registration phase\");\r\n        require(proposalIndex > 1, \"No proposal submitted yet\");\r\n\r\n        votingStatus = WorkflowStatus.ProposalsRegistrationEnded;\r\n        emit WorkflowStatusChange(WorkflowStatus.ProposalsRegistrationStarted, WorkflowStatus.ProposalsRegistrationEnded);\r\n        emit ProposalsRegistrationEnded();\r\n    }\r\n\r\n    function startVotingSession() public onlyOwner {\r\n        require(votingStatus == WorkflowStatus.ProposalsRegistrationEnded, \"Allowed only after proposal registration phase\");\r\n\r\n        votingStatus = WorkflowStatus.VotingSessionStarted;\r\n        emit WorkflowStatusChange(WorkflowStatus.ProposalsRegistrationEnded, WorkflowStatus.VotingSessionStarted);\r\n        emit VotingSessionStarted();\r\n    }\r\n\r\n    function stopVotingSession() public onlyOwner {\r\n        require(votingStatus == WorkflowStatus.VotingSessionStarted, \"Allowed only during voting phase\");\r\n        require(voteCountMax > 0, \"No vote submitted yet\");\r\n\r\n        votingStatus = WorkflowStatus.VotingSessionEnded;\r\n        emit WorkflowStatusChange(WorkflowStatus.VotingSessionStarted, WorkflowStatus.VotingSessionEnded);\r\n        emit VotingSessionEnded();\r\n\r\n        votingStatus = WorkflowStatus.VotesTallied;\r\n        emit WorkflowStatusChange(WorkflowStatus.VotingSessionEnded, WorkflowStatus.VotesTallied);\r\n        emit VotesTallied();        \r\n    }\r\n\r\n    function voterRegistration(address _address) public onlyOwner {\r\n        require(!voters[_address].isRegistered, \"This voter is already registered !\");\r\n        require(votingStatus == WorkflowStatus.RegisteringVoters, \"Registering phase finished\");\r\n\r\n        voters[_address].isRegistered = true;\r\n        voters[_address].hasVoted = false;\r\n        nbVoters++;\r\n        emit VoterRegistered(_address);\r\n    }\r\n\r\n    function proposalRegistration(string calldata description) public {\r\n        require(votingStatus == WorkflowStatus.ProposalsRegistrationStarted, \"Not allowed outside of the proposal registering phase\");\r\n\r\n\t\tproposals[proposalIndex].description = description;\r\n        emit ProposalRegistered(proposalIndex);\r\n        proposalIndex++;\r\n    }\r\n\r\n    function voting(uint proposalId) public {\r\n        require(votingStatus == WorkflowStatus.VotingSessionStarted, \"Not allowed outside of the voting phase\");\r\n        require(voters[msg.sender].isRegistered, \"Voter not registered\");\r\n        require(!voters[msg.sender].hasVoted, \"Voter already voted\");\r\n        require(proposalId > 0 && proposalId < proposalIndex, \"Proposition not found\");\r\n\r\n        voters[msg.sender].hasVoted = true; \r\n        voters[msg.sender].votedProposalId = proposalId;\r\n        proposals[proposalId].voteCount++;\r\n        if (proposals[proposalId].voteCount > voteCountMax) {\r\n            voteCountMax = proposals[proposalId].voteCount;\r\n            winningProposalId = proposalId;\r\n        }\r\n        emit Voted(msg.sender, proposalId);\r\n    } \r\n\r\n    function getWinningProposal() public view returns (string memory) {\r\n        require(votingStatus == WorkflowStatus.VotesTallied, \"Voting session not finished yet\");\r\n        require(winningProposalId > 0, \"No vote done - no result\");\r\n        return proposals[winningProposalId].description;\r\n    }\r\n\r\n    function getWinningVotes() public view returns (uint) {\r\n        require(votingStatus == WorkflowStatus.VotesTallied, \"Voting session not finished yet\");\r\n        require(winningProposalId > 0, \"No vote done - no result\");\r\n        return proposals[winningProposalId].voteCount;\r\n    }\r\n    \r\n    function getVotingStatus() public view returns (WorkflowStatus) {\r\n        return votingStatus;\r\n    }\r\n\r\n    function getNbProposals() public view returns (uint) {\r\n        return proposalIndex - 1;\r\n    }\r\n    \r\n    function getProposal(uint proposalId) public view returns (string memory) {\r\n        require(proposalId > 0 && proposalId < proposalIndex, \"Incorrect proposal id\");\r\n        return proposals[proposalId].description;\r\n    }\r\n\r\n    function getNbVoters() public view returns (uint) {\r\n        return nbVoters;\r\n    }\r\n}",
  "sourcePath": "C:\\Users\\chris\\Documents\\git\\vote-dapp\\contracts\\Voting.sol",
  "compiler": {
    "name": "solc",
    "version": "0.6.11+commit.5ef660b1.Emscripten.clang"
  },
  "schemaVersion": "3.4.3",
  "updatedAt": "2021-11-12T20:49:11.334Z",
  "networkType": "ethereum",
  "devdoc": {
    "kind": "dev",
    "methods": {
      "owner()": {
        "details": "Returns the address of the current owner."
      },
      "renounceOwnership()": {
        "details": "Leaves the contract without owner. It will not be possible to call `onlyOwner` functions anymore. Can only be called by the current owner. NOTE: Renouncing ownership will leave the contract without an owner, thereby removing any functionality that is only available to the owner."
      },
      "transferOwnership(address)": {
        "details": "Transfers ownership of the contract to a new account (`newOwner`). Can only be called by the current owner."
      }
    },
    "version": 1
  },
  "userdoc": {
    "kind": "user",
    "methods": {},
    "version": 1
  }
}